:020000040000FA
:100000000A128A11EA2F00308A000408840A820743
:10001000003443346F346D346D3461346E34643481
:1000200020344534723472346F34723400344934BD
:100030003234433420344134443458344C3433342F
:10004000343435343D3400345734723469347434C4
:0800500065344F344B340034D9
:10048C000A128A119C220A128A110800831603137D
:10049C0091149118522A532A4F2A080083160313D9
:1004AC00111411185A2A5B2A572A080083160313B1
:1004BC0011151119622A632A5F2A08006400800151
:1004CC00840A0406031900340406652A83160313F0
:1004DC0011081F39031D732A742A6C2A1419772AE0
:1004EC00782A6C2A0800F00070088312031393001A
:1004FC00831603131418832A842A7E2A0A128A115B
:10050C006C220A128A110800831203130713871333
:10051C008316031307138717203099002030980097
:10052C0018159030831203139800080083160313D8
:10053C00871507168030940028308312031394001B
:10054C0083160313910131309300831203138C1122
:10055C000800831603139115141CB52AB62AB22A67
:10056C00831203131308F0007008F1000A128A11A9
:10057C006C220A128A1171080800F1000430F00094
:10058C007008F200F930F0007008FD000000000067
:10059C00FD0BCC2A64000130F202031DD62AD72AA7
:1005AC00C82A0130F102031DDC2ADD2AC42A080006
:1005BC00F2000A128A1154220A128A11A6300A1267
:1005CC008A1179220A128A1172080A128A11792266
:1005DC000A128A1171080A128A1179220A128A11D6
:1005EC000A128A115C220A128A110800F300F20125
:1005FC00132B83160313981C042B052BFF2A72084C
:10060C007307F1007108840083130008831203132D
:10061C0099000130F1007108F20770087202031C96
:10062C00182B192BFF2A080083120313850183163C
:10063C0003138501831203138601831603138601AA
:10064C008312031387018316031387018312031389
:10065C0088018316031388018312031389018316FF
:10066C00031389010800F300F401542B7008840073
:10067C000A128A1103200A128A11F10074087307F6
:10068C00F200720884007108831380000130F100BD
:10069C007108F0070130F1007108F407700884004C
:1006AC000A128A1103200A128A11003A031D5F2BC9
:1006BC00602B3C2B74080800F3000A128A11542298
:1006CC000A128A11A6300A128A1179220A128A1188
:1006DC0073080A128A1179220A128A110A128A11D3
:1006EC004C220A128A11A7300A128A1179220A1294
:1006FC008A110A128A11AF220A128A11F2007208A8
:10070C00F4000A128A115C220A128A117408080079
:10071C000030FC000030FB000030FA000030F90023
:10072C00701C992B9A2BB12B7408F90775080311BF
:10073C000318013E0319A32BFA07760803110318BB
:10074C00013E0319AA2BFB07770803110318013E7E
:10075C000319B12BFC070130F8000310F40DF50D53
:10076C00F60DF70DF80BB32B01300310F30CF20C54
:10077C00F10CF00CFF3E031DBB2B730872047104CB
:10078C007004031DCA2BCB2B962B7C08F3007B0823
:10079C00F2007A08F1007908F0000800FB00F7017C
:1007AC00F8017008FF3EF90071080318013EFF3E86
:1007BC00FA00102C77087B07F20072088400831370
:1007CC000008F300F4017308F5007408F6007908CA
:1007DC007B07F200720884000008F30077087B079F
:1007EC00F40074088400730880007508F20079081E
:1007FC007B07F30073088400720880000130F70750
:10080C000318F80A0030F8070130F9020030031C15
:10081C00FA03FA027A087802031D162C790877027B
:10082C00031C192C1A2CE02B080083120313A000B4
:10083C00213084000630FF0083138001840AFF0BF3
:10084C00222C32300A128A1162230A128A11F70002
:10085C00770883120313A10033300A128A11622322
:10086C000A128A11F700770883120313A20034309E
:10087C000A128A1162230A128A11F700770883126E
:10088C000313A30035300A128A1162230A128A114B
:10089C00F700770883120313A40036300A128A116A
:1008AC0062230A128A11F700770883120313A5003A
:1008BC0037300A128A1162230A128A11F70077085C
:1008CC0083120313A60020088400210883138000E0
:1008DC00840A220880007508840023088000840A9A
:1008EC00240880007608840025088000840A2608E5
:1008FC0080000800FA01F71F842C852C922CF40937
:10090C00F509F609F709F40A0319F50A0319F60AA9
:10091C000319F70AFA01FA0AF31F952C962CA12C4D
:10092C00F009F109F209F309F00A0319F10A0319A4
:10093C00F20A0319F30A73087204710470040319A0
:10094C00A82CA92CEC2CF901F90AB92C0130F800CF
:10095C000310F00DF10DF20DF30DF80BAE2C013070
:10096C00F8007808F907F31FBC2CBD2CAC2C7308CD
:10097C007702031DCB2C72087602031DCB2C710859
:10098C007502031DCB2C70087402031CCE2CCF2CCB
:10099C00DD2C7008F4027108031C710FF50272084B
:1009AC00031C720FF6027308031C730FF70201305D
:1009BC000310F30CF20CF10CF00CFF3E031DDE2CBB
:1009CC000130F902031DEB2CEC2CBD2C7A08031919
:1009DC00F02CF12CFC2CF409F509F609F709F40AB2
:1009EC000319F50A0319F60A0319F70A7708F30035
:1009FC007608F2007508F1007408F0000800831204
:100A0C000313A101F31F0B2D0C2D192DF009F10966
:100A1C00F209F309F00A0319F10A0319F20A03198E
:100A2C00F30AA101A10AF71F1C2D1D2D2C2DF40971
:100A3C00F509F609F709F40A0319F50A0319F60A78
:100A4C000319F70A0130F8007808A1060030A50058
:100A5C000030A4000030A3000030A2007308720420
:100A6C007104700403193B2D3C2D892DA001A00AA3
:100A7C004C2D0130F8000310F00DF10DF20DF30DBB
:100A8C00F80B412D0130F8007808A007F31F4F2D0B
:100A9C00502D3F2D0130F8000310A20DA30DA40D15
:100AAC00A50DF80B522D73087702031D672D7208E4
:100ABC007602031D672D71087502031D672D7008E2
:100ACC007402031C6A2D6B2D7A2D7008F4027108C8
:100ADC00031C710FF5027208031C720FF6027308E7
:100AEC00031C730FF702221401300310F30CF20CE9
:100AFC00F10CF00CFF3E031D7B2D0130A002031DF9
:100B0C00882D892D502D210803198D2D8E2D992D71
:100B1C00A209A309A409A509A20A0319A30A031986
:100B2C00A40A0319A50A2508F3002408F2002308D7
:100B3C00F1002208F000080083120313AF01AE018C
:100B4C00A91FA92DAA2D112EFF30F300FF30F200A2
:100B5C00FF30F100FF30F0002908F7002808F600FC
:100B6C002708F5002608F4000A128A118E230A12AF
:100B7C008A11730883120313A9007208A800710864
:100B8C00A7007008A600AE01AE0A112E0030F300CB
:100B9C000030F2000030F1000A30F0002908F700B4
:100BAC002808F6002708F5002608F4000A128A1116
:100BBC0080240A128A117008303E83120313AC0091
:100BCC002F082A07AD002D0884002C088313800001
:100BDC000130AC002C08AF070030F3000030F200FD
:100BEC000030F1000A30F0002908F7002808F60060
:100BFC002708F5002608F4000A128A1105250A12A6
:100C0C008A11730883120313A9007208A8007108D3
:100C1C00A7007008A6002908280427042604031D31
:100C2C00182E192ECC2D2E03031D1D2E1E2E382EE4
:100C3C002D30AC002F082A07AD002D0884002C089D
:100C4C00831380000130AC002C08AF07382E3030F5
:100C5C00AC002F082A07AD002D0884002C08831344
:100C6C008000282E2B082F0203183D2E3E2E432EDB
:100C7C002E080319422E432E2D2E2F08AC00AD0149
:100C8C002C08F0002D08F1002A080A128A11D4232E
:100C9C000A128A11831203132F082A07AC002C089E
:100CAC008400831380012F08080037308400103033
:100CBC00FF0083138001840AFF0B5F2E0D3083121B
:100CCC000313B0003008D0002030B0003008D10041
:100CDC00C701C801CA01CB01CC01CD01CE01CF01A6
:100CEC000A128A111A230A128A110A128A118A22EA
:100CFC000A128A110A128A1146220A128A118312C6
:100D0C00031307150F30B0003008F00037300A120B
:100D1C008A1139230A128A1183120313B100310884
:100D2C00D2005208B0003008F00037300A128A1195
:100D3C00FC220A128A1100300A128A1162230A124A
:100D4C008A1183120313B0003008C9004908B0009F
:100D5C00B101B201B3013308A9003208A80031086F
:100D6C00A7003008A6003730B4003408AA000330BE
:100D7C00B5003508AB000A128A11A2250A128A1195
:100D8C0083120313B6003608D2005208B0003008A4
:100D9C00F00037300A128A11FC220A128A11F00173
:100DAC00F00A50300A128A11FC220A128A110A30F7
:100DBC0083120313B0003008F1002C300A128A1190
:100DCC00DE220A128A1105300A128A11C3220A1273
:100DDC008A110B3083120313B0003008F10031304C
:100DEC000A128A11DE220A128A1105300A128A119D
:100DFC00C3220A128A11083083120313B000300880
:100E0C00F1002D300A128A11DE220A128A110530E5
:100E1C000A128A11C3220A128A114C30831203134C
:100E2C00B0003008F5004E30B1003108F6004A3001
:100E3C000A128A111B240A128A11831203134A08FC
:100E4C00A6004B08A7000030A71BFF30A800A90084
:100E5C003730B0003008AA000530B1003108AB00C3
:100E6C000A128A11A2250A128A1183120313B200E4
:100E7C003208D2005208B0003008F00037300A12A5
:100E8C008A11FC220A128A11F001F00A51300A125E
:100E9C008A11FC220A128A11831203134C08A60031
:100EAC004D08A7000030A71BFF30A800A900373061
:100EBC00B0003008AA000530B1003108AB000A12AE
:100ECC008A11A2250A128A1183120313B200320866
:100EDC00D2005208B0003008F00037300A128A11E4
:100EEC00FC220A128A11F001F00A51300A128A11FE
:100EFC00FC220A128A11831203134E08A6004F0813
:100F0C00A7000030A71BFF30A800A9003730B000A5
:100F1C003008AA000530B1003108AB000A128A1162
:100F2C00A2250A128A1183120313B2003208D200CE
:100F3C005208B0003008F00037300A128A11FC2237
:100F4C000A128A11F001F00A50300A128A11FC229E
:100F5C000A128A110030831203134802323003192B
:100F6C004702031CBA2FBB2FCA2F0310081D0314F2
:100F7C000318C12FC52F831203130815C82F831212
:100F8C0003130811C701C801F930B0003008FD0087
:100F9C00000000000A128A11FD0BD02FF9308312C9
:100FAC000313B0003008FD0000000000FD0BDA2F29
:100FBC00013083120313C7070318C80A0030C8078F
:100FCC00132F0A128A110028FD0183135330840059
:100FDC006A300A128A1164220A128A11A030840023
:100FEC00C0300A128A1164220A128A1183010A1271
:040FFC008A115B2ECD
:02400E003A3F37
:00000001FF
